:100000000C9434000C9446000C9446000C9446006A
:100010000C9446000C9446000C9446000C94460048
:100020000C9446000C9446000C9446000C94460038
:100030000C9446000C9446000C9446000C94460028
:100040000C9446000C9446000C947F000C944600DF
:100050000C9446000C9446000C9446000C94460008
:100060000C9446000C94460011241FBECFEFD8E03C
:10007000DEBFCDBF11E0A0E0B1E001C01D92A3340E
:10008000B107E1F70E9448000C944E010C94000067
:10009000EF92FF920F931F93DF93CF93CDB7DEB70D
:1000A000C058D0400FB6F894DEBF0FBECDBF60E899
:1000B00075E280E090E00E94AB007E010894E11CB4
:1000C000F11C8E010F5B1F4F0E94CB008823E1F3D0
:1000D000C7010E940E0120E030E0F801E20FF31F9B
:1000E000D701A20FB31F8C91805E80832F5F3F4F9B
:1000F0002034310591F7C8010E94D600E5CF1F9248
:100100000F920FB60F9211248F939F93EF93FF934B
:10011000809102019091C600E82FF0E0ED5FFE4F64
:1001200090838F5F80930201809102018F7380938F
:10013000020180910001803428F4809100018F5FDA
:1001400080930001FF91EF919F918F910F900FBECF
:100150000F901F9018959B01AC0180E28093C00026
:1001600088E98093C10086E08093C20084E0220F7A
:10017000331F441F551F8A95D1F760E074E284EF66
:1001800090E00E942C01215030403093C500209314
:10019000C40078940895809100010895982F80916B
:1001A000C00085FFFCCF9093C6000895FC0107C0F6
:1001B0008091C00085FFFCCF9093C600319690815E
:1001C0009923B1F708959C01F9012F5F3F4F949156
:1001D000992339F08091C00085FFFCCF9093C60031
:1001E000F3CF089580910001882311F4EFEF14C03C
:1001F00080910101E82FF0E0ED5FFE4FE0818F5F1D
:1002000080930101809101018F738093010180919E
:1002100000018150809300018E2F0895EF92FF928C
:100220001F93CF93DF937C0110E006C00E94F20081
:10023000CE0DDF1D88831F5F80910001C12FD0E0AC
:100240008823A1F7CE0DDF1D1882812FDF91CF917A
:100250001F91FF90EF900895A1E21A2EAA1BBB1BDD
:10026000FD010DC0AA1FBB1FEE1FFF1FA217B30782
:10027000E407F50720F0A21BB30BE40BF50B661F98
:10028000771F881F991F1A9469F76095709580955C
:1002900090959B01AC01BD01CF010895F894FFCF6B
:00000001FF
