:100000000C9434000C9451000C9451000C94510049
:100010000C9451000C9451000C9451000C9451001C
:100020000C9451000C9451000C9451000C9451000C
:100030000C9451000C9451000C9451000C945100FC
:100040000C9451000C9451000C94AC000C94510091
:100050000C9451000C9451000C9451000C945100DC
:100060000C9451000C94510011241FBECFEFD8E026
:10007000DEBFCDBF11E0A0E0B1E0EAEFF2E002C0E8
:1000800005900D92A231B107D9F711E0A2E1B1E0DC
:1000900001C01D92A535B107E1F70E9453000C94F1
:1000A0007B010C940000CF92DF92EF92FF920F93AE
:1000B0001F93DF93CF93CDB7DEB7C058D0400FB6B4
:1000C000F894DEBF0FBECDBF60E875E280E090E03F
:1000D0000E94D80080E9C82E81E0D82E7E010894C5
:1000E000E11CF11C8E010F5B1F4F80E091E00E942C
:1000F00003010E94F8008823E1F388EE93E0F60103
:100100003197F1F70197D9F7C7010E943B01682F9A
:10011000482F50E0F701E40FF51F108290E020E037
:1001200030E00CC0F801E20FF31FD701A20FB31F9C
:100130008C91805280839F5F2F5F3F4F961791F77E
:10014000400F511FFA011082C8010E9403018EE086
:1001500091E00E940301C9CF1F920F920FB60F9238
:1001600011248F939F93EF93FF93809114019091AB
:10017000C600E82FF0E0EB5EFE4F90838F5F809328
:100180001401809114018F738093140180911201E6
:10019000803428F4809112018F5F80931201FF91C7
:1001A000EF919F918F910F900FBE0F901F90189518
:1001B0009B01AC0180E28093C00088E98093C1007C
:1001C00086E08093C20084E0220F331F441F551F36
:1001D0008A95D1F760E074E284EF90E00E945901C3
:1001E000215030403093C5002093C4007894089586
:1001F000809112010895982F8091C00085FFFCCF57
:100200009093C6000895FC0107C08091C00085FF4F
:10021000FCCF9093C600319690819923B1F7089551
:100220009C01F9012F5F3F4F9491992339F0809100
:10023000C00085FFFCCF9093C600F3CF0895809156
:100240001201882311F4EFEF14C080911301E82FFD
:10025000F0E0EB5EFE4FE0818F5F809313018091B1
:1002600013018F7380931301809112018150809349
:1002700012018E2F0895EF92FF921F93CF93DF9379
:100280007C0110E006C00E941F01CE0DDF1D888397
:100290001F5F80911201C12FD0E08823A1F7CE0DFE
:1002A000DF1D1882812FDF91CF911F91FF90EF907A
:1002B0000895A1E21A2EAA1BBB1BFD010DC0AA1FA7
:1002C000BB1FEE1FFF1FA217B307E407F50720F0BF
:1002D000A21BB30BE40BF50B661F771F881F991F3A
:1002E0001A9469F760957095809590959B01AC0183
:0A02F000BD01CF010895F894FFCF7F
:1002FA00556E657369207265633A200D0A000D0A0E
:02030A000000F1
:00000001FF
